{
  "contractName": "PriorityQueue",
  "abi": [
    {
      "constant": true,
      "inputs": [
        {
          "name": "i",
          "type": "uint256"
        }
      ],
      "name": "minChild",
      "outputs": [
        {
          "name": "",
          "type": "uint256"
        }
      ],
      "payable": false,
      "stateMutability": "view",
      "type": "function"
    },
    {
      "constant": false,
      "inputs": [
        {
          "name": "k",
          "type": "uint256"
        }
      ],
      "name": "insert",
      "outputs": [],
      "payable": false,
      "stateMutability": "nonpayable",
      "type": "function"
    },
    {
      "constant": false,
      "inputs": [],
      "name": "delMin",
      "outputs": [
        {
          "name": "",
          "type": "uint256"
        }
      ],
      "payable": false,
      "stateMutability": "nonpayable",
      "type": "function"
    },
    {
      "constant": true,
      "inputs": [],
      "name": "currentSize",
      "outputs": [
        {
          "name": "",
          "type": "uint256"
        }
      ],
      "payable": false,
      "stateMutability": "view",
      "type": "function"
    },
    {
      "constant": true,
      "inputs": [],
      "name": "getMin",
      "outputs": [
        {
          "name": "",
          "type": "uint256"
        }
      ],
      "payable": false,
      "stateMutability": "view",
      "type": "function"
    },
    {
      "inputs": [],
      "payable": false,
      "stateMutability": "nonpayable",
      "type": "constructor"
    }
  ],
  "bytecode": "0x6060604052341561000f57600080fd5b336000806101000a81548173ffffffffffffffffffffffffffffffffffffffff021916908373ffffffffffffffffffffffffffffffffffffffff160217905550602060405190810160405280600060ff168152506001906001610073929190610081565b5060006002819055506100f8565b8280548282559060005260206000209081019282156100c2579160200282015b828111156100c1578251829060ff169055916020019190600101906100a1565b5b5090506100cf91906100d3565b5090565b6100f591905b808211156100f15760008160009055506001016100d9565b5090565b90565b610756806101076000396000f30060606040526004361061006d576000357c0100000000000000000000000000000000000000000000000000000000900463ffffffff1680632dcdcd0c1461007257806390b5561d146100a9578063b07576ac146100cc578063bda1504b146100f5578063d6362e971461011e575b600080fd5b341561007d57600080fd5b6100936004808035906020019091905050610147565b6040518082815260200191505060405180910390f35b34156100b457600080fd5b6100ca6004808035906020019091905050610253565b005b34156100d757600080fd5b6100df610301565b6040518082815260200191505060405180910390f35b341561010057600080fd5b610108610404565b6040518082815260200191505060405180910390f35b341561012957600080fd5b61013161040a565b6040518082815260200191505060405180910390f35b6000600254610173600161016560028661042c90919063ffffffff16565b61046790919063ffffffff16565b11156101945761018d60028361042c90919063ffffffff16565b905061024e565b60016101bd60016101af60028661042c90919063ffffffff16565b61046790919063ffffffff16565b8154811015156101c957fe5b90600052602060002090015460016101eb60028561042c90919063ffffffff16565b8154811015156101f757fe5b90600052602060002090015410156102245761021d60028361042c90919063ffffffff16565b905061024e565b61024b600161023d60028561042c90919063ffffffff16565b61046790919063ffffffff16565b90505b919050565b6000809054906101000a900473ffffffffffffffffffffffffffffffffffffffff1673ffffffffffffffffffffffffffffffffffffffff163373ffffffffffffffffffffffffffffffffffffffff161415156102ae57600080fd5b600180548060010182816102c291906106d9565b9160005260206000209001600083909190915055506102ed600160025461046790919063ffffffff16565b6002819055506102fe600254610485565b50565b6000806000809054906101000a900473ffffffffffffffffffffffffffffffffffffffff1673ffffffffffffffffffffffffffffffffffffffff163373ffffffffffffffffffffffffffffffffffffffff1614151561035f57600080fd5b60018081548110151561036e57fe5b9060005260206000209001549050600160025481548110151561038d57fe5b9060005260206000209001546001808154811015156103a857fe5b90600052602060002090018190555060016002548154811015156103c857fe5b9060005260206000209001600090556103ed60016002546105b390919063ffffffff16565b6002819055506103fd60016105cc565b8091505090565b60025481565b600060018081548110151561041b57fe5b906000526020600020900154905090565b60008060008414156104415760009150610460565b828402905082848281151561045257fe5b0414151561045c57fe5b8091505b5092915050565b600080828401905083811015151561047b57fe5b8091505092915050565b6000808291505b60006104a26002846106be90919063ffffffff16565b11156105ae5760016104be6002846106be90919063ffffffff16565b8154811015156104ca57fe5b9060005260206000209001546001838154811015156104e557fe5b906000526020600020900154101561059357600161050d6002846106be90919063ffffffff16565b81548110151561051957fe5b906000526020600020900154905060018281548110151561053657fe5b90600052602060002090015460016105586002856106be90919063ffffffff16565b81548110151561056457fe5b9060005260206000209001819055508060018381548110151561058357fe5b9060005260206000209001819055505b6105a76002836106be90919063ffffffff16565b915061048c565b505050565b60008282111515156105c157fe5b818303905092915050565b60008060008392505b6002546105ec60028561042c90919063ffffffff16565b1115156106b8576105fc83610147565b915060018281548110151561060d57fe5b90600052602060002090015460018481548110151561062857fe5b90600052602060002090015411156106b05760018381548110151561064957fe5b906000526020600020900154905060018281548110151561066657fe5b90600052602060002090015460018481548110151561068157fe5b906000526020600020900181905550806001838154811015156106a057fe5b9060005260206000209001819055505b8192506105d5565b50505050565b60008082848115156106cc57fe5b0490508091505092915050565b815481835581811511610700578183600052602060002091820191016106ff9190610705565b5b505050565b61072791905b8082111561072357600081600090555060010161070b565b5090565b905600a165627a7a72305820ec8c98f7909b68cc5dc22caee43ea59f89b5f74d1521e499e9d44750bddf16b30029",
  "source": "pragma solidity ^0.4.18;\n\nimport \"../lib/SafeMath.sol\";\n\n\ncontract PriorityQueue {\n  using SafeMath for uint256;\n\n  /*\n   *  Modifiers\n   */\n  modifier onlyOwner() {\n    require(msg.sender == owner);\n    _;\n  }\n\n  /*\n   *  Storage\n   */\n  address owner;\n  uint256[] heapList;\n  uint256 public currentSize;\n\n  function PriorityQueue()\n    public\n  {\n    owner = msg.sender;\n    heapList = [0];\n    currentSize = 0;\n  }\n\n  function insert(uint256 k)\n    public\n    onlyOwner\n  {\n    heapList.push(k);\n    currentSize = currentSize.add(1);\n    percUp(currentSize);\n  }\n\n  function minChild(uint256 i)\n    public\n    view\n    returns (uint256)\n  {\n    if (i.mul(2).add(1) > currentSize) {\n      return i.mul(2);\n    } else {\n      if (heapList[i.mul(2)] < heapList[i.mul(2).add(1)]) {\n        return i.mul(2);\n      } else {\n        return i.mul(2).add(1);\n      }\n    }\n  }\n\n  function getMin()\n    public\n    view\n    returns (uint256)\n  {\n    return heapList[1];\n  }\n\n  function delMin()\n    public\n    onlyOwner\n    returns (uint256)\n  {\n    uint256 retVal = heapList[1];\n    heapList[1] = heapList[currentSize];\n    delete heapList[currentSize];\n    currentSize = currentSize.sub(1);\n    percDown(1);\n    return retVal;\n  }\n\n  function percUp(uint256 s)\n    private\n  {\n    var i = s;\n    while (i.div(2) > 0) {\n      if (heapList[i] < heapList[i.div(2)]) {\n        uint256 tmp = heapList[i.div(2)];\n        heapList[i.div(2)] = heapList[i];\n        heapList[i] = tmp;\n      }\n      i = i.div(2);\n    }\n  }\n\n  function percDown(uint256 s)\n    private\n  {\n    var i = s;\n    while (i.mul(2) <= currentSize) {\n      uint256 mc = minChild(i);\n      if (heapList[i] > heapList[mc]) {\n        uint256 tmp = heapList[i];\n        heapList[i] = heapList[mc];\n        heapList[mc] = tmp;\n      }\n      i = mc;\n    }\n  }\n}\n",
  "sourcePath": "/Users/jdkanani/matic/plasma/contracts/ds/PriorityQueue.sol",
  "compiler": {
    "name": "solc",
    "version": "0.4.18+commit.9cf6e910.Emscripten.clang"
  },
  "schemaVersion": "1.0.1",
  "updatedAt": "2018-01-19T16:36:08.655Z"
}